{
  "_format": "hh-sol-artifact-1",
  "contractName": "CodifaiPoolFactory",
  "sourceName": "contracts/engine/CodifaiPoolFactory.sol",
  "abi": [
    {
      "inputs": [
        {
          "internalType": "address",
          "name": "creator",
          "type": "address"
        },
        {
          "internalType": "address[]",
          "name": "tokens",
          "type": "address[]"
        },
        {
          "internalType": "uint256[]",
          "name": "amounts",
          "type": "uint256[]"
        }
      ],
      "name": "createCodifaiPool",
      "outputs": [
        {
          "internalType": "address",
          "name": "",
          "type": "address"
        }
      ],
      "stateMutability": "nonpayable",
      "type": "function"
    }
  ],
  "bytecode": "0x608060405234801561001057600080fd5b50610a0c806100206000396000f3fe608060405234801561001057600080fd5b506004361061002b5760003560e01c80633d27e3f114610030575b600080fd5b61004361003e36600461011c565b61005f565b6040516001600160a01b03909116815260200160405180910390f35b6000338686868686604051610073906100a9565b6100829695949392919061019a565b604051809103906000f08015801561009e573d6000803e3d6000fd5b509695505050505050565b6107a58061023283390190565b80356001600160a01b03811681146100cd57600080fd5b919050565b60008083601f8401126100e3578182fd5b50813567ffffffffffffffff8111156100fa578182fd5b6020830191508360208260051b850101111561011557600080fd5b9250929050565b600080600080600060608688031215610133578081fd5b61013c866100b6565b9450602086013567ffffffffffffffff80821115610158578283fd5b61016489838a016100d2565b9096509450604088013591508082111561017c578283fd5b50610189888289016100d2565b969995985093965092949392505050565b6001600160a01b0387811682528681166020808401919091526080604084018190528301869052600091879160a08501845b898110156101f157836101de866100b6565b16825293820193908201906001016101cc565b5085810360608701528681526001600160fb1b03871115610210578485fd5b8660051b93508388838301379092019091019182525097965050505050505056fe608060405234801561001057600080fd5b506040516107a53803806107a583398101604081905261002f916101e4565b600080546001600160a01b038087166001600160a01b031992831617835560018054918716919092161790555b825181101561014f57600283828151811061008757634e487b7160e01b600052603260045260246000fd5b60209081029190910181015182546001810184556000938452919092200180546001600160a01b0319166001600160a01b0390921691909117905581518290829081106100e457634e487b7160e01b600052603260045260246000fd5b60200260200101516003600085848151811061011057634e487b7160e01b600052603260045260246000fd5b60200260200101516001600160a01b03166001600160a01b031681526020019081526020016000208190555080806101479061031c565b91505061005c565b5050505050610359565b80516001600160a01b038116811461017057600080fd5b919050565b600082601f830112610185578081fd5b8151602061019a610195836102f9565b6102c9565b80838252828201915082860187848660051b89010111156101b9578586fd5b855b858110156101d7578151845292840192908401906001016101bb565b5090979650505050505050565b600080600080608085870312156101f9578384fd5b61020285610159565b93506020610211818701610159565b60408701519094506001600160401b038082111561022d578485fd5b818801915088601f830112610240578485fd5b815161024e610195826102f9565b8082825285820191508585018c878560051b880101111561026d578889fd5b8895505b838610156102965761028281610159565b835260019590950194918601918601610271565b5060608b015190975094505050808311156102af578384fd5b50506102bd87828801610175565b91505092959194509250565b604051601f8201601f191681016001600160401b03811182821017156102f1576102f1610343565b604052919050565b60006001600160401b0382111561031257610312610343565b5060051b60200190565b600060001982141561033c57634e487b7160e01b81526011600452602481fd5b5060010190565b634e487b7160e01b600052604160045260246000fd5b61043d806103686000396000f3fe608060405234801561001057600080fd5b50600436106100415760003560e01c80633ccfd60b146100465780637dafa7c31461005057806389c0656814610076575b600080fd5b61004e61008b565b005b61006361005e36600461030e565b61023a565b6040519081526020015b60405180910390f35b61007e610281565b60405161006d919061035c565b6000546001600160a01b031633146100be5760405162461bcd60e51b81526004016100b5906103a9565b60405180910390fd5b60005b60025481101561023757600281815481106100ec57634e487b7160e01b600052603260045260246000fd5b6000918252602082200154600154600280546001600160a01b039384169463a9059cbb949093169260039290918790811061013757634e487b7160e01b600052603260045260246000fd5b6000918252602080832091909101546001600160a01b039081168452908301939093526040918201902054905160e085901b6001600160e01b03191681529290911660048301526024820152604401602060405180830381600087803b1580156101a057600080fd5b505af11580156101b4573d6000803e3d6000fd5b505050506040513d601f19601f820116820180604052508101906101d8919061033c565b506000600360006002848154811061020057634e487b7160e01b600052603260045260246000fd5b60009182526020808320909101546001600160a01b031683528201929092526040019020558061022f816103e0565b9150506100c1565b50565b600080546001600160a01b031633146102655760405162461bcd60e51b81526004016100b5906103a9565b506001600160a01b031660009081526003602052604090205490565b6000546060906001600160a01b031633146102ae5760405162461bcd60e51b81526004016100b5906103a9565b600280548060200260200160405190810160405280929190818152602001828054801561030457602002820191906000526020600020905b81546001600160a01b031681526001909101906020018083116102e6575b5050505050905090565b60006020828403121561031f578081fd5b81356001600160a01b0381168114610335578182fd5b9392505050565b60006020828403121561034d578081fd5b81518015158114610335578182fd5b6020808252825182820181905260009190848201906040850190845b8181101561039d5783516001600160a01b031683529284019291840191600101610378565b50909695505050505050565b60208082526018908201527f4f6e6c7920616c6c6f7765642066726f6d20656e67696e650000000000000000604082015260600190565b600060001982141561040057634e487b7160e01b81526011600452602481fd5b506001019056fea264697066735822122023fa2a183b57fa5266849332f3fce829959865f9ee642c55b8b959d5708aa5f164736f6c63430008040033a26469706673582212205ed716c41fbc869bcd86904cd05bcac73746bbf051bff4aa7d0e377961d8464864736f6c63430008040033",
  "linkReferences": {},
  "deployedLinkReferences": {}
}