{
  "_format": "hh-sol-artifact-1",
  "contractName": "CodifaiPool",
  "sourceName": "contracts/engine/CodifaiPool.sol",
  "abi": [
    {
      "inputs": [
        {
          "internalType": "address",
          "name": "engine",
          "type": "address"
        },
        {
          "internalType": "address",
          "name": "creator",
          "type": "address"
        },
        {
          "internalType": "address[]",
          "name": "tokens",
          "type": "address[]"
        },
        {
          "internalType": "uint256[]",
          "name": "amounts",
          "type": "uint256[]"
        }
      ],
      "stateMutability": "nonpayable",
      "type": "constructor"
    },
    {
      "inputs": [
        {
          "internalType": "address",
          "name": "user",
          "type": "address"
        },
        {
          "internalType": "address",
          "name": "to",
          "type": "address"
        }
      ],
      "name": "claimRewards",
      "outputs": [],
      "stateMutability": "nonpayable",
      "type": "function"
    },
    {
      "inputs": [
        {
          "internalType": "address",
          "name": "user",
          "type": "address"
        }
      ],
      "name": "completeLearning",
      "outputs": [],
      "stateMutability": "nonpayable",
      "type": "function"
    },
    {
      "inputs": [
        {
          "internalType": "address",
          "name": "token",
          "type": "address"
        }
      ],
      "name": "getPoolTokenBalance",
      "outputs": [
        {
          "internalType": "uint256",
          "name": "",
          "type": "uint256"
        }
      ],
      "stateMutability": "view",
      "type": "function"
    },
    {
      "inputs": [],
      "name": "getPoolTokens",
      "outputs": [
        {
          "internalType": "address[]",
          "name": "",
          "type": "address[]"
        }
      ],
      "stateMutability": "view",
      "type": "function"
    },
    {
      "inputs": [
        {
          "internalType": "uint256[]",
          "name": "rewards",
          "type": "uint256[]"
        }
      ],
      "name": "setPoolRewards",
      "outputs": [],
      "stateMutability": "nonpayable",
      "type": "function"
    },
    {
      "inputs": [],
      "name": "withdraw",
      "outputs": [],
      "stateMutability": "nonpayable",
      "type": "function"
    }
  ],
  "bytecode": "0x60806040523480156200001157600080fd5b5060405162000fa938038062000fa98339810160408190526200003491620001fa565b600080546001600160a01b038087166001600160a01b031992831617835560018054918716919092161790555b82518110156200015b5760028382815181106200008e57634e487b7160e01b600052603260045260246000fd5b60209081029190910181015182546001810184556000938452919092200180546001600160a01b0319166001600160a01b039092169190911790558151829082908110620000ec57634e487b7160e01b600052603260045260246000fd5b6020026020010151600360008584815181106200011957634e487b7160e01b600052603260045260246000fd5b60200260200101516001600160a01b03166001600160a01b0316815260200190815260200160002081905550808062000152906200034a565b91505062000061565b505050505062000388565b80516001600160a01b03811681146200017e57600080fd5b919050565b600082601f83011262000194578081fd5b81516020620001ad620001a78362000324565b620002f1565b80838252828201915082860187848660051b8901011115620001cd578586fd5b855b85811015620001ed57815184529284019290840190600101620001cf565b5090979650505050505050565b6000806000806080858703121562000210578384fd5b6200021b8562000166565b935060206200022c81870162000166565b60408701519094506001600160401b038082111562000249578485fd5b818801915088601f8301126200025d578485fd5b81516200026e620001a78262000324565b8082825285820191508585018c878560051b88010111156200028e578889fd5b8895505b83861015620002bb57620002a68162000166565b83526001959095019491860191860162000292565b5060608b01519097509450505080831115620002d5578384fd5b5050620002e58782880162000183565b91505092959194509250565b604051601f8201601f191681016001600160401b03811182821017156200031c576200031c62000372565b604052919050565b60006001600160401b0382111562000340576200034062000372565b5060051b60200190565b60006000198214156200036b57634e487b7160e01b81526011600452602481fd5b5060010190565b634e487b7160e01b600052604160045260246000fd5b610c1180620003986000396000f3fe608060405234801561001057600080fd5b50600436106100625760003560e01c80633ccfd60b1461006757806375bdf729146100715780637dafa7c31461008457806389c06568146100aa578063956a3417146100bf578063f1e42ccd146100d2575b600080fd5b61006f6100e5565b005b61006f61007f366004610a7f565b610294565b610097610092366004610a2c565b610378565b6040519081526020015b60405180910390f35b6100b26103c3565b6040516100a19190610b0f565b61006f6100cd366004610a2c565b610450565b61006f6100e0366004610a4d565b6107d5565b6000546001600160a01b031633146101185760405162461bcd60e51b815260040161010f90610b5c565b60405180910390fd5b60005b600254811015610291576002818154811061014657634e487b7160e01b600052603260045260246000fd5b6000918252602082200154600154600280546001600160a01b039384169463a9059cbb949093169260039290918790811061019157634e487b7160e01b600052603260045260246000fd5b6000918252602080832091909101546001600160a01b039081168452908301939093526040918201902054905160e085901b6001600160e01b03191681529290911660048301526024820152604401602060405180830381600087803b1580156101fa57600080fd5b505af115801561020e573d6000803e3d6000fd5b505050506040513d601f19601f820116820180604052508101906102329190610aef565b506000600360006002848154811061025a57634e487b7160e01b600052603260045260246000fd5b60009182526020808320909101546001600160a01b031683528201929092526040019020558061028981610baa565b91505061011b565b50565b60025481146102e55760405162461bcd60e51b815260206004820181905260248201527f496e76616c6964206172726179206c656e67746820666f722072657761726473604482015260640161010f565b60005b818110156103735782828281811061031057634e487b7160e01b600052603260045260246000fd5b90506020020135600460006002848154811061033c57634e487b7160e01b600052603260045260246000fd5b60009182526020808320909101546001600160a01b031683528201929092526040019020558061036b81610baa565b9150506102e8565b505050565b600080546001600160a01b031633146103a35760405162461bcd60e51b815260040161010f90610b5c565b506001600160a01b0381166000908152600360205260409020545b919050565b6000546060906001600160a01b031633146103f05760405162461bcd60e51b815260040161010f90610b5c565b600280548060200260200160405190810160405280929190818152602001828054801561044657602002820191906000526020600020905b81546001600160a01b03168152600190910190602001808311610428575b5050505050905090565b6000546001600160a01b0316331461047a5760405162461bcd60e51b815260040161010f90610b5c565b6001600160a01b03811660009081526006602052604090205460ff16156104e35760405162461bcd60e51b815260206004820152601d60248201527f416c726561647920636f6d706c65746564207468697320636f75727365000000604482015260640161010f565b60005b6002548110156107d1576001600160a01b0382166000908152600560205260408120600280549192918490811061052d57634e487b7160e01b600052603260045260246000fd5b60009182526020808320909101546001600160a01b031683528201929092526040019020546107bf57600460006002838154811061057b57634e487b7160e01b600052603260045260246000fd5b9060005260206000200160009054906101000a90046001600160a01b03166001600160a01b03166001600160a01b031681526020019081526020016000205460036000600284815481106105df57634e487b7160e01b600052603260045260246000fd5b60009182526020808320909101546001600160a01b0316835282019290925260400190205410156106525760405162461bcd60e51b815260206004820181905260248201527f496e73756666696369656e742062616c616e636520666f722072657761726473604482015260640161010f565b600460006002838154811061067757634e487b7160e01b600052603260045260246000fd5b60009182526020808320909101546001600160a01b03908116845283820194909452604092830182205493861682526005905290812060028054919291859081106106d257634e487b7160e01b600052603260045260246000fd5b60009182526020808320909101546001600160a01b031683528201929092526040018120919091556002805460049291908490811061072157634e487b7160e01b600052603260045260246000fd5b9060005260206000200160009054906101000a90046001600160a01b03166001600160a01b03166001600160a01b0316815260200190815260200160002054600360006002848154811061078557634e487b7160e01b600052603260045260246000fd5b60009182526020808320909101546001600160a01b03168352820192909252604001812080549091906107b9908490610b93565b90915550505b806107c981610baa565b9150506104e6565b5050565b6000546001600160a01b031633146107ff5760405162461bcd60e51b815260040161010f90610b5c565b6001600160a01b0381166108555760405162461bcd60e51b815260206004820152601e60248201527f496e76616c6964206164647265737320746f20666f7220726577617264730000604482015260640161010f565b6001600160a01b0382166000908152600660205260408120805460ff191660011790555b600254811015610373576001600160a01b038316600090815260056020526040812060028054839190859081106108c057634e487b7160e01b600052603260045260246000fd5b60009182526020808320909101546001600160a01b031683528201929092526040019020541115610a03576002818154811061090c57634e487b7160e01b600052603260045260246000fd5b60009182526020808320909101546001600160a01b03868116845260059092526040832060028054939092169363a9059cbb938793908790811061096057634e487b7160e01b600052603260045260246000fd5b6000918252602080832091909101546001600160a01b039081168452908301939093526040918201902054905160e085901b6001600160e01b03191681529290911660048301526024820152604401602060405180830381600087803b1580156109c957600080fd5b505af11580156109dd573d6000803e3d6000fd5b505050506040513d601f19601f82011682018060405250810190610a019190610aef565b505b80610a0d81610baa565b915050610879565b80356001600160a01b03811681146103be57600080fd5b600060208284031215610a3d578081fd5b610a4682610a15565b9392505050565b60008060408385031215610a5f578081fd5b610a6883610a15565b9150610a7660208401610a15565b90509250929050565b60008060208385031215610a91578182fd5b823567ffffffffffffffff80821115610aa8578384fd5b818501915085601f830112610abb578384fd5b813581811115610ac9578485fd5b8660208260051b8501011115610add578485fd5b60209290920196919550909350505050565b600060208284031215610b00578081fd5b81518015158114610a46578182fd5b6020808252825182820181905260009190848201906040850190845b81811015610b505783516001600160a01b031683529284019291840191600101610b2b565b50909695505050505050565b60208082526018908201527f4f6e6c7920616c6c6f7765642066726f6d20656e67696e650000000000000000604082015260600190565b600082821015610ba557610ba5610bc5565b500390565b6000600019821415610bbe57610bbe610bc5565b5060010190565b634e487b7160e01b600052601160045260246000fdfea26469706673582212203742c520b83d61445bb89789a3e827e0f72486328f8b63be1faf557feccce8a364736f6c63430008040033",
  "linkReferences": {},
  "deployedLinkReferences": {}
}