{
  "_format": "hh-sol-artifact-1",
  "contractName": "CodifaiPool",
  "sourceName": "contracts/engine/CodifaiPool.sol",
  "abi": [
    {
      "inputs": [
        {
          "internalType": "address",
          "name": "engine",
          "type": "address"
        },
        {
          "internalType": "address",
          "name": "creator",
          "type": "address"
        },
        {
          "internalType": "address",
          "name": "token",
          "type": "address"
        },
        {
          "internalType": "uint256",
          "name": "amount",
          "type": "uint256"
        }
      ],
      "stateMutability": "nonpayable",
      "type": "constructor"
    },
    {
      "inputs": [],
      "name": "getPoolInformation",
      "outputs": [
        {
          "internalType": "address",
          "name": "",
          "type": "address"
        },
        {
          "internalType": "uint256",
          "name": "",
          "type": "uint256"
        }
      ],
      "stateMutability": "view",
      "type": "function"
    }
  ],
  "bytecode": "0x608060405234801561001057600080fd5b506040516101eb3803806101eb83398101604081905261002f91610090565b600080546001600160a01b03199081166001600160a01b03968716179091556001805482169486169490941790935560028054909316919093161790556003556100da565b80516001600160a01b038116811461008b57600080fd5b919050565b600080600080608085870312156100a5578384fd5b6100ae85610074565b93506100bc60208601610074565b92506100ca60408601610074565b6060959095015193969295505050565b610102806100e96000396000f3fe6080604052348015600f57600080fd5b506004361060285760003560e01c80634874961614602d575b600080fd5b60336056565b604080516001600160a01b03909316835260208301919091520160405180910390f35b6000805481906001600160a01b0316331460b65760405162461bcd60e51b815260206004820152601860248201527f4f6e6c7920616c6c6f7765642066726f6d20656e67696e650000000000000000604482015260640160405180910390fd5b50506002546003546001600160a01b039091169156fea2646970667358221220ccb65b91de1dae49afe3eda7125f5bbebf6eac002f8d5b8e704af9066d2f507564736f6c63430008040033",
  "linkReferences": {},
  "deployedLinkReferences": {}
}