{
  "_format": "hh-sol-artifact-1",
  "contractName": "CodifaiEngine",
  "sourceName": "contracts/engine/CodifaiEngine.sol",
  "abi": [
    {
      "inputs": [
        {
          "internalType": "address",
          "name": "treasury",
          "type": "address"
        }
      ],
      "stateMutability": "nonpayable",
      "type": "constructor"
    },
    {
      "inputs": [
        {
          "internalType": "uint256",
          "name": "index",
          "type": "uint256"
        }
      ],
      "name": "CodifaiEngine__InvalidPoolIndex",
      "type": "error"
    },
    {
      "inputs": [
        {
          "internalType": "uint256",
          "name": "tokenLen",
          "type": "uint256"
        },
        {
          "internalType": "uint256",
          "name": "amountLen",
          "type": "uint256"
        }
      ],
      "name": "CodifaiEngine__InvalidTokensAndAmounts",
      "type": "error"
    },
    {
      "inputs": [
        {
          "internalType": "address",
          "name": "ownerAddress",
          "type": "address"
        }
      ],
      "name": "CodifaiEngine__NotPermissionForRemove",
      "type": "error"
    },
    {
      "inputs": [
        {
          "internalType": "uint256",
          "name": "index",
          "type": "uint256"
        }
      ],
      "name": "CodifaiEngine__NotRequestedToRemove",
      "type": "error"
    },
    {
      "anonymous": false,
      "inputs": [
        {
          "indexed": false,
          "internalType": "uint256",
          "name": "poolIndex",
          "type": "uint256"
        }
      ],
      "name": "CodifaiCompletedCourse",
      "type": "event"
    },
    {
      "anonymous": false,
      "inputs": [
        {
          "indexed": false,
          "internalType": "uint256",
          "name": "poolIndex",
          "type": "uint256"
        }
      ],
      "name": "CodifaiPoolCreated",
      "type": "event"
    },
    {
      "anonymous": false,
      "inputs": [
        {
          "indexed": false,
          "internalType": "uint256",
          "name": "poolIndex",
          "type": "uint256"
        }
      ],
      "name": "CodifaiPoolRemoveSubmitted",
      "type": "event"
    },
    {
      "anonymous": false,
      "inputs": [
        {
          "indexed": false,
          "internalType": "uint256",
          "name": "poolIndex",
          "type": "uint256"
        }
      ],
      "name": "CodifaiPoolWithdrawed",
      "type": "event"
    },
    {
      "anonymous": false,
      "inputs": [
        {
          "indexed": true,
          "internalType": "address",
          "name": "previousOwner",
          "type": "address"
        },
        {
          "indexed": true,
          "internalType": "address",
          "name": "newOwner",
          "type": "address"
        }
      ],
      "name": "OwnershipTransferred",
      "type": "event"
    },
    {
      "inputs": [
        {
          "internalType": "uint256",
          "name": "poolIndex",
          "type": "uint256"
        },
        {
          "internalType": "address",
          "name": "to",
          "type": "address"
        }
      ],
      "name": "claimRewards",
      "outputs": [],
      "stateMutability": "nonpayable",
      "type": "function"
    },
    {
      "inputs": [
        {
          "internalType": "uint256",
          "name": "poolIndex",
          "type": "uint256"
        }
      ],
      "name": "completeLearning",
      "outputs": [],
      "stateMutability": "nonpayable",
      "type": "function"
    },
    {
      "inputs": [
        {
          "internalType": "uint256",
          "name": "poolIndex",
          "type": "uint256"
        }
      ],
      "name": "confirmRemoveCodifaiPool",
      "outputs": [],
      "stateMutability": "nonpayable",
      "type": "function"
    },
    {
      "inputs": [
        {
          "internalType": "address[]",
          "name": "tokens",
          "type": "address[]"
        },
        {
          "internalType": "uint256[]",
          "name": "amounts",
          "type": "uint256[]"
        }
      ],
      "name": "createCodifaiPool",
      "outputs": [],
      "stateMutability": "nonpayable",
      "type": "function"
    },
    {
      "inputs": [],
      "name": "getCodifaiPool",
      "outputs": [
        {
          "internalType": "address",
          "name": "",
          "type": "address"
        }
      ],
      "stateMutability": "view",
      "type": "function"
    },
    {
      "inputs": [
        {
          "internalType": "uint256",
          "name": "poolIndex",
          "type": "uint256"
        },
        {
          "internalType": "address",
          "name": "token",
          "type": "address"
        }
      ],
      "name": "getCodifaiPoolBalance",
      "outputs": [
        {
          "internalType": "uint256",
          "name": "",
          "type": "uint256"
        }
      ],
      "stateMutability": "view",
      "type": "function"
    },
    {
      "inputs": [
        {
          "internalType": "uint256",
          "name": "poolIndex",
          "type": "uint256"
        }
      ],
      "name": "getCodifaiPoolTokens",
      "outputs": [
        {
          "internalType": "address[]",
          "name": "",
          "type": "address[]"
        }
      ],
      "stateMutability": "view",
      "type": "function"
    },
    {
      "inputs": [],
      "name": "owner",
      "outputs": [
        {
          "internalType": "address",
          "name": "",
          "type": "address"
        }
      ],
      "stateMutability": "view",
      "type": "function"
    },
    {
      "inputs": [],
      "name": "renounceOwnership",
      "outputs": [],
      "stateMutability": "nonpayable",
      "type": "function"
    },
    {
      "inputs": [
        {
          "internalType": "uint256",
          "name": "poolIndex",
          "type": "uint256"
        }
      ],
      "name": "requestRemoveCodifaiPool",
      "outputs": [],
      "stateMutability": "nonpayable",
      "type": "function"
    },
    {
      "inputs": [
        {
          "internalType": "uint256",
          "name": "poolIndex",
          "type": "uint256"
        },
        {
          "internalType": "uint256[]",
          "name": "rewards",
          "type": "uint256[]"
        }
      ],
      "name": "setCodifaiPoolRewards",
      "outputs": [],
      "stateMutability": "nonpayable",
      "type": "function"
    },
    {
      "inputs": [
        {
          "internalType": "address",
          "name": "newOwner",
          "type": "address"
        }
      ],
      "name": "transferOwnership",
      "outputs": [],
      "stateMutability": "nonpayable",
      "type": "function"
    }
  ],
  "bytecode": "0x60a060405234801561001057600080fd5b50604051620025d7380380620025d7833981016040819052610031916100f2565b61003a33610094565b600180546001600160a01b0319166001600160a01b038316179055604051610061906100e4565b604051809103906000f08015801561007d573d6000803e3d6000fd5b5060601b6001600160601b03191660805250610120565b600080546001600160a01b038381166001600160a01b0319831681178455604051919092169283917f8be0079c531659141344cd1fd0a4f28419497f9722a3daafe3b4186f6b6457e09190a35050565b61123080620013a783390190565b600060208284031215610103578081fd5b81516001600160a01b0381168114610119578182fd5b9392505050565b60805160601c6112686200013f600039600061066c01526112686000f3fe608060405234801561001057600080fd5b50600436106100b45760003560e01c806395af3df91161007157806395af3df914610144578063dc67d07f14610164578063e4ba75a014610185578063e624e45a14610198578063f2fde38b146101ab578063fac83896146101be57600080fd5b806305092710146100b957806337aa0952146100f057806348d917ef146101055780636c7b69cb14610118578063715018a61461012b5780638da5cb5b14610133575b600080fd5b336000908152600360205260409020546001600160a01b03165b6040516001600160a01b0390911681526020015b60405180910390f35b6101036100fe366004610ffa565b6101d1565b005b610103610113366004610f9b565b610291565b610103610126366004610fcb565b61037c565b610103610437565b6000546001600160a01b03166100d3565b610157610152366004610f9b565b61046d565b6040516100e791906110ea565b610177610172366004610fcb565b610543565b6040519081526020016100e7565b610103610193366004610e4b565b61061d565b6101036101a6366004610f9b565b6109d6565b6101036101b9366004610e13565b610b2a565b6101036101cc366004610f9b565b610bc5565b600254839081106101fd576040516308625a8760e21b8152600481018290526024015b60405180910390fd5b6002848154811061021e57634e487b7160e01b600052603260045260246000fd5b6000918252602090912001546040516375bdf72960e01b81526001600160a01b03909116906375bdf729906102599086908690600401611137565b600060405180830381600087803b15801561027357600080fd5b505af1158015610287573d6000803e3d6000fd5b5050505050505050565b600254819081106102b8576040516308625a8760e21b8152600481018290526024016101f4565b600282815481106102d957634e487b7160e01b600052603260045260246000fd5b60009182526020909120015460405163956a341760e01b81523360048201526001600160a01b039091169063956a341790602401600060405180830381600087803b15801561032757600080fd5b505af115801561033b573d6000803e3d6000fd5b505050507f7211ad722e5b3af780a067d2fc491c99ad0da9e5c4bf11f6a168120c1f75d22e8260405161037091815260200190565b60405180910390a15050565b600254829081106103a3576040516308625a8760e21b8152600481018290526024016101f4565b600283815481106103c457634e487b7160e01b600052603260045260246000fd5b60009182526020909120015460405163f1e42ccd60e01b81523360048201526001600160a01b0384811660248301529091169063f1e42ccd90604401600060405180830381600087803b15801561041a57600080fd5b505af115801561042e573d6000803e3d6000fd5b50505050505050565b6000546001600160a01b031633146104615760405162461bcd60e51b81526004016101f49061114b565b61046b6000610d45565b565b6060818060028054905011610498576040516308625a8760e21b8152600481018290526024016101f4565b600283815481106104b957634e487b7160e01b600052603260045260246000fd5b6000918252602082200154604080516311380cad60e31b815290516001600160a01b03909216926389c0656892600480840193829003018186803b15801561050057600080fd5b505afa158015610514573d6000803e3d6000fd5b505050506040513d6000823e601f3d908101601f1916820160405261053c9190810190610eb4565b9392505050565b600082806002805490501161056e576040516308625a8760e21b8152600481018290526024016101f4565b6002848154811061058f57634e487b7160e01b600052603260045260246000fd5b600091825260209091200154604051637dafa7c360e01b81526001600160a01b03858116600483015290911690637dafa7c39060240160206040518083038186803b1580156105dd57600080fd5b505afa1580156105f1573d6000803e3d6000fd5b505050506040513d601f19601f820116820180604052508101906106159190610fb3565b949350505050565b82158061062a5750828114155b1561065257604051630d24c40d60e11b815260048101849052602481018290526044016101f4565b604051633d27e3f160e01b81526000906001600160a01b037f00000000000000000000000000000000000000000000000000000000000000001690633d27e3f1906106a99033908990899089908990600401611078565b602060405180830381600087803b1580156106c357600080fd5b505af11580156106d7573d6000803e3d6000fd5b505050506040513d601f19601f820116820180604052508101906106fb9190610e2f565b60028054600181019091557f405787fa12a823e0f2b7631cc41b3ba8828b3321ca811111fa75cd3aa3bb5ace0180546001600160a01b0383166001600160a01b03199182168117909255336000908152600360205260408120805490921690921790559091505b8481101561098d5785858281811061078a57634e487b7160e01b600052603260045260246000fd5b905060200201602081019061079f9190610e13565b6001546001600160a01b03918216916323b872dd913391166107fc60646107f660148b8b8a8181106107e157634e487b7160e01b600052603260045260246000fd5b90506020020135610d9590919063ffffffff16565b90610da1565b6040516001600160e01b031960e086901b1681526001600160a01b0393841660048201529290911660248301526044820152606401602060405180830381600087803b15801561084b57600080fd5b505af115801561085f573d6000803e3d6000fd5b505050506040513d601f19601f820116820180604052508101906108839190610f7b565b508585828181106108a457634e487b7160e01b600052603260045260246000fd5b90506020020160208101906108b99190610e13565b6001600160a01b03166323b872dd33846108f360646107f660508b8b8a8181106107e157634e487b7160e01b600052603260045260246000fd5b6040516001600160e01b031960e086901b1681526001600160a01b0393841660048201529290911660248301526044820152606401602060405180830381600087803b15801561094257600080fd5b505af1158015610956573d6000803e3d6000fd5b505050506040513d601f19601f8201168201806040525081019061097a9190610f7b565b5080610985816111d6565b915050610762565b506002547f7238431b2e6cc2e6220461425c901b9109f77295852c7d3dc107fe7c9bb62280906109be906001610dad565b60405190815260200160405180910390a15050505050565b600254819081106109fd576040516308625a8760e21b8152600481018290526024016101f4565b60025482908110610a24576040516308625a8760e21b8152600481018290526024016101f4565b60028181548110610a4557634e487b7160e01b600052603260045260246000fd5b600091825260208083209091015433835260039091526040909120546001600160a01b03908116911614610a8e576040516315e87d0960e01b81523360048201526024016101f4565b336004600060028681548110610ab457634e487b7160e01b600052603260045260246000fd5b6000918252602080832091909101546001600160a01b03908116845283820194909452604092830190912080546001600160a01b0319169490931693909317909155518481527f6c7be66c24c640e5ec500cc5c77a522d40bc6b50c438543f2827b9690581698c910160405180910390a1505050565b6000546001600160a01b03163314610b545760405162461bcd60e51b81526004016101f49061114b565b6001600160a01b038116610bb95760405162461bcd60e51b815260206004820152602660248201527f4f776e61626c653a206e6577206f776e657220697320746865207a65726f206160448201526564647265737360d01b60648201526084016101f4565b610bc281610d45565b50565b60025481908110610bec576040516308625a8760e21b8152600481018290526024016101f4565b6000546001600160a01b03163314610c165760405162461bcd60e51b81526004016101f49061114b565b60006001600160a01b03166004600060028581548110610c4657634e487b7160e01b600052603260045260246000fd5b60009182526020808320909101546001600160a01b039081168452908301939093526040909101902054161415610c935760405163cfe5a08360e01b8152600481018390526024016101f4565b60028281548110610cb457634e487b7160e01b600052603260045260246000fd5b600091825260208220015460408051633ccfd60b60e01b815290516001600160a01b0390921692633ccfd60b9260048084019382900301818387803b158015610cfc57600080fd5b505af1158015610d10573d6000803e3d6000fd5b505050507fa8ca197aa9f5790223405301fc9b0b8e4385344ad0444005915489f6e41903c18260405161037091815260200190565b600080546001600160a01b038381166001600160a01b0319831681178455604051919092169283917f8be0079c531659141344cd1fd0a4f28419497f9722a3daafe3b4186f6b6457e09190a35050565b600061053c82846111a0565b600061053c8284611180565b600061053c82846111bf565b8051610dc48161121d565b919050565b60008083601f840112610dda578081fd5b50813567ffffffffffffffff811115610df1578182fd5b6020830191508360208260051b8501011115610e0c57600080fd5b9250929050565b600060208284031215610e24578081fd5b813561053c8161121d565b600060208284031215610e40578081fd5b815161053c8161121d565b60008060008060408587031215610e60578283fd5b843567ffffffffffffffff80821115610e77578485fd5b610e8388838901610dc9565b90965094506020870135915080821115610e9b578384fd5b50610ea887828801610dc9565b95989497509550505050565b60006020808385031215610ec6578182fd5b825167ffffffffffffffff80821115610edd578384fd5b818501915085601f830112610ef0578384fd5b815181811115610f0257610f02611207565b8060051b604051601f19603f83011681018181108582111715610f2757610f27611207565b604052828152858101935084860182860187018a1015610f45578788fd5b8795505b83861015610f6e57610f5a81610db9565b855260019590950194938601938601610f49565b5098975050505050505050565b600060208284031215610f8c578081fd5b8151801515811461053c578182fd5b600060208284031215610fac578081fd5b5035919050565b600060208284031215610fc4578081fd5b5051919050565b60008060408385031215610fdd578182fd5b823591506020830135610fef8161121d565b809150509250929050565b60008060006040848603121561100e578283fd5b83359250602084013567ffffffffffffffff81111561102b578283fd5b61103786828701610dc9565b9497909650939450505050565b81835260006001600160fb1b0383111561105c578081fd5b8260051b80836020870137939093016020019283525090919050565b6001600160a01b03868116825260606020808401829052908301869052600091879160808501845b898110156110c75784356110b38161121d565b8416825293820193908201906001016110a0565b5085810360408701526110db81888a611044565b9b9a5050505050505050505050565b6020808252825182820181905260009190848201906040850190845b8181101561112b5783516001600160a01b031683529284019291840191600101611106565b50909695505050505050565b602081526000610615602083018486611044565b6020808252818101527f4f776e61626c653a2063616c6c6572206973206e6f7420746865206f776e6572604082015260600190565b60008261119b57634e487b7160e01b81526012600452602481fd5b500490565b60008160001904831182151516156111ba576111ba6111f1565b500290565b6000828210156111d1576111d16111f1565b500390565b60006000198214156111ea576111ea6111f1565b5060010190565b634e487b7160e01b600052601160045260246000fd5b634e487b7160e01b600052604160045260246000fd5b6001600160a01b0381168114610bc257600080fdfea26469706673582212208f21033a7b6d9bdc34deb047b06c48ff3e5ffb0e38e212ae3ded19019f8042c564736f6c63430008040033608060405234801561001057600080fd5b50611210806100206000396000f3fe608060405234801561001057600080fd5b506004361061002b5760003560e01c80633d27e3f114610030575b600080fd5b61004361003e36600461011c565b61005f565b6040516001600160a01b03909116815260200160405180910390f35b6000338686868686604051610073906100a9565b6100829695949392919061019a565b604051809103906000f08015801561009e573d6000803e3d6000fd5b509695505050505050565b610fa98061023283390190565b80356001600160a01b03811681146100cd57600080fd5b919050565b60008083601f8401126100e3578182fd5b50813567ffffffffffffffff8111156100fa578182fd5b6020830191508360208260051b850101111561011557600080fd5b9250929050565b600080600080600060608688031215610133578081fd5b61013c866100b6565b9450602086013567ffffffffffffffff80821115610158578283fd5b61016489838a016100d2565b9096509450604088013591508082111561017c578283fd5b50610189888289016100d2565b969995985093965092949392505050565b6001600160a01b0387811682528681166020808401919091526080604084018190528301869052600091879160a08501845b898110156101f157836101de866100b6565b16825293820193908201906001016101cc565b5085810360608701528681526001600160fb1b03871115610210578485fd5b8660051b93508388838301379092019091019182525097965050505050505056fe60806040523480156200001157600080fd5b5060405162000fa938038062000fa98339810160408190526200003491620001fa565b600080546001600160a01b038087166001600160a01b031992831617835560018054918716919092161790555b82518110156200015b5760028382815181106200008e57634e487b7160e01b600052603260045260246000fd5b60209081029190910181015182546001810184556000938452919092200180546001600160a01b0319166001600160a01b039092169190911790558151829082908110620000ec57634e487b7160e01b600052603260045260246000fd5b6020026020010151600360008584815181106200011957634e487b7160e01b600052603260045260246000fd5b60200260200101516001600160a01b03166001600160a01b0316815260200190815260200160002081905550808062000152906200034a565b91505062000061565b505050505062000388565b80516001600160a01b03811681146200017e57600080fd5b919050565b600082601f83011262000194578081fd5b81516020620001ad620001a78362000324565b620002f1565b80838252828201915082860187848660051b8901011115620001cd578586fd5b855b85811015620001ed57815184529284019290840190600101620001cf565b5090979650505050505050565b6000806000806080858703121562000210578384fd5b6200021b8562000166565b935060206200022c81870162000166565b60408701519094506001600160401b038082111562000249578485fd5b818801915088601f8301126200025d578485fd5b81516200026e620001a78262000324565b8082825285820191508585018c878560051b88010111156200028e578889fd5b8895505b83861015620002bb57620002a68162000166565b83526001959095019491860191860162000292565b5060608b01519097509450505080831115620002d5578384fd5b5050620002e58782880162000183565b91505092959194509250565b604051601f8201601f191681016001600160401b03811182821017156200031c576200031c62000372565b604052919050565b60006001600160401b0382111562000340576200034062000372565b5060051b60200190565b60006000198214156200036b57634e487b7160e01b81526011600452602481fd5b5060010190565b634e487b7160e01b600052604160045260246000fd5b610c1180620003986000396000f3fe608060405234801561001057600080fd5b50600436106100625760003560e01c80633ccfd60b1461006757806375bdf729146100715780637dafa7c31461008457806389c06568146100aa578063956a3417146100bf578063f1e42ccd146100d2575b600080fd5b61006f6100e5565b005b61006f61007f366004610a7f565b610294565b610097610092366004610a2c565b610378565b6040519081526020015b60405180910390f35b6100b26103c3565b6040516100a19190610b0f565b61006f6100cd366004610a2c565b610450565b61006f6100e0366004610a4d565b6107d5565b6000546001600160a01b031633146101185760405162461bcd60e51b815260040161010f90610b5c565b60405180910390fd5b60005b600254811015610291576002818154811061014657634e487b7160e01b600052603260045260246000fd5b6000918252602082200154600154600280546001600160a01b039384169463a9059cbb949093169260039290918790811061019157634e487b7160e01b600052603260045260246000fd5b6000918252602080832091909101546001600160a01b039081168452908301939093526040918201902054905160e085901b6001600160e01b03191681529290911660048301526024820152604401602060405180830381600087803b1580156101fa57600080fd5b505af115801561020e573d6000803e3d6000fd5b505050506040513d601f19601f820116820180604052508101906102329190610aef565b506000600360006002848154811061025a57634e487b7160e01b600052603260045260246000fd5b60009182526020808320909101546001600160a01b031683528201929092526040019020558061028981610baa565b91505061011b565b50565b60025481146102e55760405162461bcd60e51b815260206004820181905260248201527f496e76616c6964206172726179206c656e67746820666f722072657761726473604482015260640161010f565b60005b818110156103735782828281811061031057634e487b7160e01b600052603260045260246000fd5b90506020020135600460006002848154811061033c57634e487b7160e01b600052603260045260246000fd5b60009182526020808320909101546001600160a01b031683528201929092526040019020558061036b81610baa565b9150506102e8565b505050565b600080546001600160a01b031633146103a35760405162461bcd60e51b815260040161010f90610b5c565b506001600160a01b0381166000908152600360205260409020545b919050565b6000546060906001600160a01b031633146103f05760405162461bcd60e51b815260040161010f90610b5c565b600280548060200260200160405190810160405280929190818152602001828054801561044657602002820191906000526020600020905b81546001600160a01b03168152600190910190602001808311610428575b5050505050905090565b6000546001600160a01b0316331461047a5760405162461bcd60e51b815260040161010f90610b5c565b6001600160a01b03811660009081526006602052604090205460ff16156104e35760405162461bcd60e51b815260206004820152601d60248201527f416c726561647920636f6d706c65746564207468697320636f75727365000000604482015260640161010f565b60005b6002548110156107d1576001600160a01b0382166000908152600560205260408120600280549192918490811061052d57634e487b7160e01b600052603260045260246000fd5b60009182526020808320909101546001600160a01b031683528201929092526040019020546107bf57600460006002838154811061057b57634e487b7160e01b600052603260045260246000fd5b9060005260206000200160009054906101000a90046001600160a01b03166001600160a01b03166001600160a01b031681526020019081526020016000205460036000600284815481106105df57634e487b7160e01b600052603260045260246000fd5b60009182526020808320909101546001600160a01b0316835282019290925260400190205410156106525760405162461bcd60e51b815260206004820181905260248201527f496e73756666696369656e742062616c616e636520666f722072657761726473604482015260640161010f565b600460006002838154811061067757634e487b7160e01b600052603260045260246000fd5b60009182526020808320909101546001600160a01b03908116845283820194909452604092830182205493861682526005905290812060028054919291859081106106d257634e487b7160e01b600052603260045260246000fd5b60009182526020808320909101546001600160a01b031683528201929092526040018120919091556002805460049291908490811061072157634e487b7160e01b600052603260045260246000fd5b9060005260206000200160009054906101000a90046001600160a01b03166001600160a01b03166001600160a01b0316815260200190815260200160002054600360006002848154811061078557634e487b7160e01b600052603260045260246000fd5b60009182526020808320909101546001600160a01b03168352820192909252604001812080549091906107b9908490610b93565b90915550505b806107c981610baa565b9150506104e6565b5050565b6000546001600160a01b031633146107ff5760405162461bcd60e51b815260040161010f90610b5c565b6001600160a01b0381166108555760405162461bcd60e51b815260206004820152601e60248201527f496e76616c6964206164647265737320746f20666f7220726577617264730000604482015260640161010f565b6001600160a01b0382166000908152600660205260408120805460ff191660011790555b600254811015610373576001600160a01b038316600090815260056020526040812060028054839190859081106108c057634e487b7160e01b600052603260045260246000fd5b60009182526020808320909101546001600160a01b031683528201929092526040019020541115610a03576002818154811061090c57634e487b7160e01b600052603260045260246000fd5b60009182526020808320909101546001600160a01b03868116845260059092526040832060028054939092169363a9059cbb938793908790811061096057634e487b7160e01b600052603260045260246000fd5b6000918252602080832091909101546001600160a01b039081168452908301939093526040918201902054905160e085901b6001600160e01b03191681529290911660048301526024820152604401602060405180830381600087803b1580156109c957600080fd5b505af11580156109dd573d6000803e3d6000fd5b505050506040513d601f19601f82011682018060405250810190610a019190610aef565b505b80610a0d81610baa565b915050610879565b80356001600160a01b03811681146103be57600080fd5b600060208284031215610a3d578081fd5b610a4682610a15565b9392505050565b60008060408385031215610a5f578081fd5b610a6883610a15565b9150610a7660208401610a15565b90509250929050565b60008060208385031215610a91578182fd5b823567ffffffffffffffff80821115610aa8578384fd5b818501915085601f830112610abb578384fd5b813581811115610ac9578485fd5b8660208260051b8501011115610add578485fd5b60209290920196919550909350505050565b600060208284031215610b00578081fd5b81518015158114610a46578182fd5b6020808252825182820181905260009190848201906040850190845b81811015610b505783516001600160a01b031683529284019291840191600101610b2b565b50909695505050505050565b60208082526018908201527f4f6e6c7920616c6c6f7765642066726f6d20656e67696e650000000000000000604082015260600190565b600082821015610ba557610ba5610bc5565b500390565b6000600019821415610bbe57610bbe610bc5565b5060010190565b634e487b7160e01b600052601160045260246000fdfea26469706673582212203742c520b83d61445bb89789a3e827e0f72486328f8b63be1faf557feccce8a364736f6c63430008040033a2646970667358221220db433ef654fa230656300dd30544a74a0a3dfb95a0a1cad9b642b70ed74ef9a864736f6c63430008040033",
  "linkReferences": {},
  "deployedLinkReferences": {}
}