{
  "_format": "hh-sol-artifact-1",
  "contractName": "CodifaiEngine",
  "sourceName": "contracts/engine/CodifaiEngine.sol",
  "abi": [
    {
      "inputs": [
        {
          "internalType": "address",
          "name": "treasury",
          "type": "address"
        }
      ],
      "stateMutability": "nonpayable",
      "type": "constructor"
    },
    {
      "anonymous": false,
      "inputs": [
        {
          "indexed": true,
          "internalType": "address",
          "name": "CodifaiPool",
          "type": "address"
        }
      ],
      "name": "CodifaiPoolCreated",
      "type": "event"
    },
    {
      "anonymous": false,
      "inputs": [
        {
          "indexed": true,
          "internalType": "address",
          "name": "previousOwner",
          "type": "address"
        },
        {
          "indexed": true,
          "internalType": "address",
          "name": "newOwner",
          "type": "address"
        }
      ],
      "name": "OwnershipTransferred",
      "type": "event"
    },
    {
      "inputs": [
        {
          "internalType": "address",
          "name": "token",
          "type": "address"
        },
        {
          "internalType": "uint256",
          "name": "amount",
          "type": "uint256"
        }
      ],
      "name": "createCodifaiPool",
      "outputs": [],
      "stateMutability": "nonpayable",
      "type": "function"
    },
    {
      "inputs": [],
      "name": "getCodifaiPool",
      "outputs": [
        {
          "internalType": "address",
          "name": "",
          "type": "address"
        }
      ],
      "stateMutability": "view",
      "type": "function"
    },
    {
      "inputs": [
        {
          "internalType": "address",
          "name": "pool",
          "type": "address"
        }
      ],
      "name": "getCodifaiPoolInfo",
      "outputs": [
        {
          "internalType": "address",
          "name": "",
          "type": "address"
        },
        {
          "internalType": "uint256",
          "name": "",
          "type": "uint256"
        }
      ],
      "stateMutability": "view",
      "type": "function"
    },
    {
      "inputs": [],
      "name": "owner",
      "outputs": [
        {
          "internalType": "address",
          "name": "",
          "type": "address"
        }
      ],
      "stateMutability": "view",
      "type": "function"
    },
    {
      "inputs": [],
      "name": "renounceOwnership",
      "outputs": [],
      "stateMutability": "nonpayable",
      "type": "function"
    },
    {
      "inputs": [
        {
          "internalType": "address",
          "name": "newOwner",
          "type": "address"
        }
      ],
      "name": "transferOwnership",
      "outputs": [],
      "stateMutability": "nonpayable",
      "type": "function"
    }
  ],
  "bytecode": "0x60a060405234801561001057600080fd5b50604051610b81380380610b8183398101604081905261002f916100ef565b61003833610092565b600180546001600160a01b0319166001600160a01b03831617905560405161005f906100e2565b604051809103906000f08015801561007b573d6000803e3d6000fd5b5060601b6001600160601b0319166080525061011d565b600080546001600160a01b038381166001600160a01b0319831681178455604051919092169283917f8be0079c531659141344cd1fd0a4f28419497f9722a3daafe3b4186f6b6457e09190a35050565b6103628061081f83390190565b600060208284031215610100578081fd5b81516001600160a01b0381168114610116578182fd5b9392505050565b60805160601c6106e461013b60003960006101ab01526106e46000f3fe608060405234801561001057600080fd5b50600436106100625760003560e01c80630509271014610067578063715018a61461009e57806372ddf87a146100a85780638da5cb5b146100bb578063f2fde38b146100cc578063f8eaf801146100df575b600080fd5b336000908152600260205260409020546001600160a01b03165b6040516001600160a01b0390911681526020015b60405180910390f35b6100a6610111565b005b6100a66100b63660046105d6565b61017c565b6000546001600160a01b0316610081565b6100a66100da36600461059e565b6103e8565b6100f26100ed36600461059e565b6104b3565b604080516001600160a01b039093168352602083019190915201610095565b6000546001600160a01b031633146101705760405162461bcd60e51b815260206004820181905260248201527f4f776e61626c653a2063616c6c6572206973206e6f7420746865206f776e657260448201526064015b60405180910390fd5b61017a600061052f565b565b60405163d39ac05d60e01b81523360048201526001600160a01b038381166024830152604482018390526000917f00000000000000000000000000000000000000000000000000000000000000009091169063d39ac05d90606401602060405180830381600087803b1580156101f157600080fd5b505af1158015610205573d6000803e3d6000fd5b505050506040513d601f19601f8201168201806040525081019061022991906105ba565b33600081815260026020526040902080546001600160a01b0319166001600160a01b0384811691909117909155600154929350858116926323b872dd92911661027e606461027888601461057f565b90610592565b6040516001600160e01b031960e086901b1681526001600160a01b0393841660048201529290911660248301526044820152606401602060405180830381600087803b1580156102cd57600080fd5b505af11580156102e1573d6000803e3d6000fd5b505050506040513d601f19601f82011682018060405250810190610305919061062e565b506001600160a01b0383166323b872dd3383610327606461027888605061057f565b6040516001600160e01b031960e086901b1681526001600160a01b0393841660048201529290911660248301526044820152606401602060405180830381600087803b15801561037657600080fd5b505af115801561038a573d6000803e3d6000fd5b505050506040513d601f19601f820116820180604052508101906103ae919061062e565b506040516001600160a01b038216907f53719e839b02d2bc2e0475a3674a1486a210c713272b1a3af6df2f727aafa09590600090a2505050565b6000546001600160a01b031633146104425760405162461bcd60e51b815260206004820181905260248201527f4f776e61626c653a2063616c6c6572206973206e6f7420746865206f776e65726044820152606401610167565b6001600160a01b0381166104a75760405162461bcd60e51b815260206004820152602660248201527f4f776e61626c653a206e6577206f776e657220697320746865207a65726f206160448201526564647265737360d01b6064820152608401610167565b6104b08161052f565b50565b600080826001600160a01b031663487496166040518163ffffffff1660e01b8152600401604080518083038186803b1580156104ee57600080fd5b505afa158015610502573d6000803e3d6000fd5b505050506040513d601f19601f820116820180604052508101906105269190610601565b91509150915091565b600080546001600160a01b038381166001600160a01b0319831681178455604051919092169283917f8be0079c531659141344cd1fd0a4f28419497f9722a3daafe3b4186f6b6457e09190a35050565b600061058b828461066e565b9392505050565b600061058b828461064e565b6000602082840312156105af578081fd5b813561058b81610699565b6000602082840312156105cb578081fd5b815161058b81610699565b600080604083850312156105e8578081fd5b82356105f381610699565b946020939093013593505050565b60008060408385031215610613578182fd5b825161061e81610699565b6020939093015192949293505050565b60006020828403121561063f578081fd5b8151801515811461058b578182fd5b60008261066957634e487b7160e01b81526012600452602481fd5b500490565b600081600019048311821515161561069457634e487b7160e01b81526011600452602481fd5b500290565b6001600160a01b03811681146104b057600080fdfea264697066735822122064fee381bb9bd22157d76df26efa643872a0ad351bcf2a0038e25d0274a6eeff64736f6c63430008040033608060405234801561001057600080fd5b50610342806100206000396000f3fe608060405234801561001057600080fd5b506004361061002b5760003560e01c8063d39ac05d14610030575b600080fd5b61004361003e3660046100e6565b61005f565b6040516001600160a01b03909116815260200160405180910390f35b600033848484604051610071906100bd565b6001600160a01b0394851681529284166020840152921660408201526060810191909152608001604051809103906000f0801580156100b4573d6000803e3d6000fd5b50949350505050565b6101eb8061012283390190565b80356001600160a01b03811681146100e157600080fd5b919050565b6000806000606084860312156100fa578283fd5b610103846100ca565b9250610111602085016100ca565b915060408401359050925092509256fe608060405234801561001057600080fd5b506040516101eb3803806101eb83398101604081905261002f91610090565b600080546001600160a01b03199081166001600160a01b03968716179091556001805482169486169490941790935560028054909316919093161790556003556100da565b80516001600160a01b038116811461008b57600080fd5b919050565b600080600080608085870312156100a5578384fd5b6100ae85610074565b93506100bc60208601610074565b92506100ca60408601610074565b6060959095015193969295505050565b610102806100e96000396000f3fe6080604052348015600f57600080fd5b506004361060285760003560e01c80634874961614602d575b600080fd5b60336056565b604080516001600160a01b03909316835260208301919091520160405180910390f35b6000805481906001600160a01b0316331460b65760405162461bcd60e51b815260206004820152601860248201527f4f6e6c7920616c6c6f7765642066726f6d20656e67696e650000000000000000604482015260640160405180910390fd5b50506002546003546001600160a01b039091169156fea2646970667358221220ccb65b91de1dae49afe3eda7125f5bbebf6eac002f8d5b8e704af9066d2f507564736f6c63430008040033a26469706673582212207ea3caa50d4a341fc68e490dd4c6ba907696dd13d3d72b8a7855dde51e9073d364736f6c63430008040033",
  "linkReferences": {},
  "deployedLinkReferences": {}
}