{
  "_format": "hh-sol-artifact-1",
  "contractName": "CodifaiEngine",
  "sourceName": "contracts/engine/CodifaiEngine.sol",
  "abi": [
    {
      "inputs": [
        {
          "internalType": "address",
          "name": "treasury",
          "type": "address"
        }
      ],
      "stateMutability": "nonpayable",
      "type": "constructor"
    },
    {
      "inputs": [
        {
          "internalType": "uint256",
          "name": "tokenLen",
          "type": "uint256"
        },
        {
          "internalType": "uint256",
          "name": "amountLen",
          "type": "uint256"
        }
      ],
      "name": "CodifaiEngine__InvalidTokensAndAmounts",
      "type": "error"
    },
    {
      "inputs": [
        {
          "internalType": "address",
          "name": "ownerAddress",
          "type": "address"
        }
      ],
      "name": "CodifaiEngine__NotPermissionForRemove",
      "type": "error"
    },
    {
      "inputs": [
        {
          "internalType": "address",
          "name": "poolAddress",
          "type": "address"
        }
      ],
      "name": "CodifaiEngine__NotRequestedToRemove",
      "type": "error"
    },
    {
      "anonymous": false,
      "inputs": [
        {
          "indexed": true,
          "internalType": "address",
          "name": "codifaiPool",
          "type": "address"
        }
      ],
      "name": "CodifaiPoolCreated",
      "type": "event"
    },
    {
      "anonymous": false,
      "inputs": [
        {
          "indexed": true,
          "internalType": "address",
          "name": "codifaiPool",
          "type": "address"
        }
      ],
      "name": "CodifaiPoolRemoveSubmitted",
      "type": "event"
    },
    {
      "anonymous": false,
      "inputs": [
        {
          "indexed": true,
          "internalType": "address",
          "name": "codifaiPool",
          "type": "address"
        },
        {
          "indexed": true,
          "internalType": "address",
          "name": "orgCustomer",
          "type": "address"
        }
      ],
      "name": "CodifaiPoolWithdrawed",
      "type": "event"
    },
    {
      "anonymous": false,
      "inputs": [
        {
          "indexed": true,
          "internalType": "address",
          "name": "previousOwner",
          "type": "address"
        },
        {
          "indexed": true,
          "internalType": "address",
          "name": "newOwner",
          "type": "address"
        }
      ],
      "name": "OwnershipTransferred",
      "type": "event"
    },
    {
      "inputs": [
        {
          "internalType": "address",
          "name": "pool",
          "type": "address"
        }
      ],
      "name": "confirmRemoveCodifaiPool",
      "outputs": [],
      "stateMutability": "nonpayable",
      "type": "function"
    },
    {
      "inputs": [
        {
          "internalType": "address[]",
          "name": "tokens",
          "type": "address[]"
        },
        {
          "internalType": "uint256[]",
          "name": "amounts",
          "type": "uint256[]"
        }
      ],
      "name": "createCodifaiPool",
      "outputs": [],
      "stateMutability": "nonpayable",
      "type": "function"
    },
    {
      "inputs": [],
      "name": "getCodifaiPool",
      "outputs": [
        {
          "internalType": "address",
          "name": "",
          "type": "address"
        }
      ],
      "stateMutability": "view",
      "type": "function"
    },
    {
      "inputs": [
        {
          "internalType": "address",
          "name": "pool",
          "type": "address"
        },
        {
          "internalType": "address",
          "name": "token",
          "type": "address"
        }
      ],
      "name": "getCodifaiPoolBalance",
      "outputs": [
        {
          "internalType": "uint256",
          "name": "",
          "type": "uint256"
        }
      ],
      "stateMutability": "view",
      "type": "function"
    },
    {
      "inputs": [
        {
          "internalType": "address",
          "name": "pool",
          "type": "address"
        }
      ],
      "name": "getCodifaiPoolTokens",
      "outputs": [
        {
          "internalType": "address[]",
          "name": "",
          "type": "address[]"
        }
      ],
      "stateMutability": "view",
      "type": "function"
    },
    {
      "inputs": [],
      "name": "owner",
      "outputs": [
        {
          "internalType": "address",
          "name": "",
          "type": "address"
        }
      ],
      "stateMutability": "view",
      "type": "function"
    },
    {
      "inputs": [],
      "name": "renounceOwnership",
      "outputs": [],
      "stateMutability": "nonpayable",
      "type": "function"
    },
    {
      "inputs": [
        {
          "internalType": "address",
          "name": "pool",
          "type": "address"
        }
      ],
      "name": "requestRemoveCodifaiPool",
      "outputs": [],
      "stateMutability": "nonpayable",
      "type": "function"
    },
    {
      "inputs": [
        {
          "internalType": "address",
          "name": "newOwner",
          "type": "address"
        }
      ],
      "name": "transferOwnership",
      "outputs": [],
      "stateMutability": "nonpayable",
      "type": "function"
    }
  ],
  "bytecode": "0x60a060405234801561001057600080fd5b5060405161183d38038061183d83398101604081905261002f916100ef565b61003833610092565b600180546001600160a01b0319166001600160a01b03831617905560405161005f906100e2565b604051809103906000f08015801561007b573d6000803e3d6000fd5b5060601b6001600160601b0319166080525061011d565b600080546001600160a01b038381166001600160a01b0319831681178455604051919092169283917f8be0079c531659141344cd1fd0a4f28419497f9722a3daafe3b4186f6b6457e09190a35050565b610a2c80610e1183390190565b600060208284031215610100578081fd5b81516001600160a01b0381168114610116578182fd5b9392505050565b60805160601c610cd661013b600039600061041a0152610cd66000f3fe608060405234801561001057600080fd5b50600436106100935760003560e01c80638da5cb5b116100665780638da5cb5b1461010c578063c69ad5ef1461011d578063e4ba75a014610130578063e728591a14610143578063f2fde38b1461016457600080fd5b80630509271014610098578063577219cb146100cf578063715018a6146100e45780637f945d1a146100ec575b600080fd5b336000908152600260205260409020546001600160a01b03165b6040516001600160a01b0390911681526020015b60405180910390f35b6100e26100dd36600461091d565b610177565b005b6100e2610287565b6100ff6100fa36600461091d565b6102bd565b6040516100c69190610b83565b6000546001600160a01b03166100b2565b6100e261012b36600461091d565b61033a565b6100e261013e36600461098d565b6103cb565b610156610151366004610955565b61073c565b6040519081526020016100c6565b6100e261017236600461091d565b6107c0565b6000546001600160a01b031633146101aa5760405162461bcd60e51b81526004016101a190610bd0565b60405180910390fd5b6001600160a01b03818116600090815260036020526040902054166101ed57604051631bb161af60e11b81526001600160a01b03821660048201526024016101a1565b806001600160a01b0316633ccfd60b6040518163ffffffff1660e01b8152600401600060405180830381600087803b15801561022857600080fd5b505af115801561023c573d6000803e3d6000fd5b505050506001600160a01b038181166000818152600360205260408082205490519316927fb5ad678c3461aae3053db2d81d1e458cfb7c775b6cfc3be3f3b502ad7d98ba639190a350565b6000546001600160a01b031633146102b15760405162461bcd60e51b81526004016101a190610bd0565b6102bb600061085b565b565b6060816001600160a01b03166389c065686040518163ffffffff1660e01b815260040160006040518083038186803b1580156102f857600080fd5b505afa15801561030c573d6000803e3d6000fd5b505050506040513d6000823e601f3d908101601f1916820160405261033491908101906109f6565b92915050565b3360009081526002602052604090205481906001600160a01b03808316911614610379576040516315e87d0960e01b81523360048201526024016101a1565b6001600160a01b03821660008181526003602052604080822080546001600160a01b03191633179055517f195f745dcf30791ad95aecf0113e6b601a48268f288ae0e271d013706964220a9190a25050565b8215806103d85750828114155b1561040057604051630d24c40d60e11b815260048101849052602481018290526044016101a1565b604051633d27e3f160e01b81526000906001600160a01b037f00000000000000000000000000000000000000000000000000000000000000001690633d27e3f1906104579033908990899089908990600401610af5565b602060405180830381600087803b15801561047157600080fd5b505af1158015610485573d6000803e3d6000fd5b505050506040513d601f19601f820116820180604052508101906104a99190610939565b33600090815260026020526040812080546001600160a01b0319166001600160a01b0384161790559091505b84811015610700578585828181106104fd57634e487b7160e01b600052603260045260246000fd5b9050602002016020810190610512919061091d565b6001546001600160a01b03918216916323b872dd9133911661056f606461056960148b8b8a81811061055457634e487b7160e01b600052603260045260246000fd5b905060200201356108ab90919063ffffffff16565b906108b7565b6040516001600160e01b031960e086901b1681526001600160a01b0393841660048201529290911660248301526044820152606401602060405180830381600087803b1580156105be57600080fd5b505af11580156105d2573d6000803e3d6000fd5b505050506040513d601f19601f820116820180604052508101906105f69190610abd565b5085858281811061061757634e487b7160e01b600052603260045260246000fd5b905060200201602081019061062c919061091d565b6001600160a01b03166323b872dd3384610666606461056960508b8b8a81811061055457634e487b7160e01b600052603260045260246000fd5b6040516001600160e01b031960e086901b1681526001600160a01b0393841660048201529290911660248301526044820152606401602060405180830381600087803b1580156106b557600080fd5b505af11580156106c9573d6000803e3d6000fd5b505050506040513d601f19601f820116820180604052508101906106ed9190610abd565b50806106f881610c44565b9150506104d5565b506040516001600160a01b038216907f53719e839b02d2bc2e0475a3674a1486a210c713272b1a3af6df2f727aafa09590600090a25050505050565b604051637dafa7c360e01b81526001600160a01b03828116600483015260009190841690637dafa7c39060240160206040518083038186803b15801561078157600080fd5b505afa158015610795573d6000803e3d6000fd5b505050506040513d601f19601f820116820180604052508101906107b99190610add565b9392505050565b6000546001600160a01b031633146107ea5760405162461bcd60e51b81526004016101a190610bd0565b6001600160a01b03811661084f5760405162461bcd60e51b815260206004820152602660248201527f4f776e61626c653a206e6577206f776e657220697320746865207a65726f206160448201526564647265737360d01b60648201526084016101a1565b6108588161085b565b50565b600080546001600160a01b038381166001600160a01b0319831681178455604051919092169283917f8be0079c531659141344cd1fd0a4f28419497f9722a3daafe3b4186f6b6457e09190a35050565b60006107b98284610c25565b60006107b98284610c05565b80516108ce81610c8b565b919050565b60008083601f8401126108e4578081fd5b50813567ffffffffffffffff8111156108fb578182fd5b6020830191508360208260051b850101111561091657600080fd5b9250929050565b60006020828403121561092e578081fd5b81356107b981610c8b565b60006020828403121561094a578081fd5b81516107b981610c8b565b60008060408385031215610967578081fd5b823561097281610c8b565b9150602083013561098281610c8b565b809150509250929050565b600080600080604085870312156109a2578182fd5b843567ffffffffffffffff808211156109b9578384fd5b6109c5888389016108d3565b909650945060208701359150808211156109dd578384fd5b506109ea878288016108d3565b95989497509550505050565b60006020808385031215610a08578182fd5b825167ffffffffffffffff80821115610a1f578384fd5b818501915085601f830112610a32578384fd5b815181811115610a4457610a44610c75565b8060051b604051601f19603f83011681018181108582111715610a6957610a69610c75565b604052828152858101935084860182860187018a1015610a87578788fd5b8795505b83861015610ab057610a9c816108c3565b855260019590950194938601938601610a8b565b5098975050505050505050565b600060208284031215610ace578081fd5b815180151581146107b9578182fd5b600060208284031215610aee578081fd5b5051919050565b6001600160a01b03868116825260606020808401829052908301869052600091879160808501845b89811015610b44578435610b3081610c8b565b841682529382019390820190600101610b1d565b5085810360408701528681526001600160fb1b03871115610b63578485fd5b8660051b9350838883830137909201909101918252509695505050505050565b6020808252825182820181905260009190848201906040850190845b81811015610bc45783516001600160a01b031683529284019291840191600101610b9f565b50909695505050505050565b6020808252818101527f4f776e61626c653a2063616c6c6572206973206e6f7420746865206f776e6572604082015260600190565b600082610c2057634e487b7160e01b81526012600452602481fd5b500490565b6000816000190483118215151615610c3f57610c3f610c5f565b500290565b6000600019821415610c5857610c58610c5f565b5060010190565b634e487b7160e01b600052601160045260246000fd5b634e487b7160e01b600052604160045260246000fd5b6001600160a01b038116811461085857600080fdfea26469706673582212203945d65c6221536dcb18dd8886d857a7f04e851fe30276da93be60fce68cfe8c64736f6c63430008040033608060405234801561001057600080fd5b50610a0c806100206000396000f3fe608060405234801561001057600080fd5b506004361061002b5760003560e01c80633d27e3f114610030575b600080fd5b61004361003e36600461011c565b61005f565b6040516001600160a01b03909116815260200160405180910390f35b6000338686868686604051610073906100a9565b6100829695949392919061019a565b604051809103906000f08015801561009e573d6000803e3d6000fd5b509695505050505050565b6107a58061023283390190565b80356001600160a01b03811681146100cd57600080fd5b919050565b60008083601f8401126100e3578182fd5b50813567ffffffffffffffff8111156100fa578182fd5b6020830191508360208260051b850101111561011557600080fd5b9250929050565b600080600080600060608688031215610133578081fd5b61013c866100b6565b9450602086013567ffffffffffffffff80821115610158578283fd5b61016489838a016100d2565b9096509450604088013591508082111561017c578283fd5b50610189888289016100d2565b969995985093965092949392505050565b6001600160a01b0387811682528681166020808401919091526080604084018190528301869052600091879160a08501845b898110156101f157836101de866100b6565b16825293820193908201906001016101cc565b5085810360608701528681526001600160fb1b03871115610210578485fd5b8660051b93508388838301379092019091019182525097965050505050505056fe608060405234801561001057600080fd5b506040516107a53803806107a583398101604081905261002f916101e4565b600080546001600160a01b038087166001600160a01b031992831617835560018054918716919092161790555b825181101561014f57600283828151811061008757634e487b7160e01b600052603260045260246000fd5b60209081029190910181015182546001810184556000938452919092200180546001600160a01b0319166001600160a01b0390921691909117905581518290829081106100e457634e487b7160e01b600052603260045260246000fd5b60200260200101516003600085848151811061011057634e487b7160e01b600052603260045260246000fd5b60200260200101516001600160a01b03166001600160a01b031681526020019081526020016000208190555080806101479061031c565b91505061005c565b5050505050610359565b80516001600160a01b038116811461017057600080fd5b919050565b600082601f830112610185578081fd5b8151602061019a610195836102f9565b6102c9565b80838252828201915082860187848660051b89010111156101b9578586fd5b855b858110156101d7578151845292840192908401906001016101bb565b5090979650505050505050565b600080600080608085870312156101f9578384fd5b61020285610159565b93506020610211818701610159565b60408701519094506001600160401b038082111561022d578485fd5b818801915088601f830112610240578485fd5b815161024e610195826102f9565b8082825285820191508585018c878560051b880101111561026d578889fd5b8895505b838610156102965761028281610159565b835260019590950194918601918601610271565b5060608b015190975094505050808311156102af578384fd5b50506102bd87828801610175565b91505092959194509250565b604051601f8201601f191681016001600160401b03811182821017156102f1576102f1610343565b604052919050565b60006001600160401b0382111561031257610312610343565b5060051b60200190565b600060001982141561033c57634e487b7160e01b81526011600452602481fd5b5060010190565b634e487b7160e01b600052604160045260246000fd5b61043d806103686000396000f3fe608060405234801561001057600080fd5b50600436106100415760003560e01c80633ccfd60b146100465780637dafa7c31461005057806389c0656814610076575b600080fd5b61004e61008b565b005b61006361005e36600461030e565b61023a565b6040519081526020015b60405180910390f35b61007e610281565b60405161006d919061035c565b6000546001600160a01b031633146100be5760405162461bcd60e51b81526004016100b5906103a9565b60405180910390fd5b60005b60025481101561023757600281815481106100ec57634e487b7160e01b600052603260045260246000fd5b6000918252602082200154600154600280546001600160a01b039384169463a9059cbb949093169260039290918790811061013757634e487b7160e01b600052603260045260246000fd5b6000918252602080832091909101546001600160a01b039081168452908301939093526040918201902054905160e085901b6001600160e01b03191681529290911660048301526024820152604401602060405180830381600087803b1580156101a057600080fd5b505af11580156101b4573d6000803e3d6000fd5b505050506040513d601f19601f820116820180604052508101906101d8919061033c565b506000600360006002848154811061020057634e487b7160e01b600052603260045260246000fd5b60009182526020808320909101546001600160a01b031683528201929092526040019020558061022f816103e0565b9150506100c1565b50565b600080546001600160a01b031633146102655760405162461bcd60e51b81526004016100b5906103a9565b506001600160a01b031660009081526003602052604090205490565b6000546060906001600160a01b031633146102ae5760405162461bcd60e51b81526004016100b5906103a9565b600280548060200260200160405190810160405280929190818152602001828054801561030457602002820191906000526020600020905b81546001600160a01b031681526001909101906020018083116102e6575b5050505050905090565b60006020828403121561031f578081fd5b81356001600160a01b0381168114610335578182fd5b9392505050565b60006020828403121561034d578081fd5b81518015158114610335578182fd5b6020808252825182820181905260009190848201906040850190845b8181101561039d5783516001600160a01b031683529284019291840191600101610378565b50909695505050505050565b60208082526018908201527f4f6e6c7920616c6c6f7765642066726f6d20656e67696e650000000000000000604082015260600190565b600060001982141561040057634e487b7160e01b81526011600452602481fd5b506001019056fea264697066735822122023fa2a183b57fa5266849332f3fce829959865f9ee642c55b8b959d5708aa5f164736f6c63430008040033a26469706673582212205ed716c41fbc869bcd86904cd05bcac73746bbf051bff4aa7d0e377961d8464864736f6c63430008040033",
  "linkReferences": {},
  "deployedLinkReferences": {}
}